{
  "contractName": "PartiesMetadata",
  "abi": [
    {
      "constant": true,
      "inputs": [
        {
          "name": "_tokenId",
          "type": "uint256"
        }
      ],
      "name": "tokenURI",
      "outputs": [
        {
          "name": "_infoUrl",
          "type": "string"
        }
      ],
      "payable": false,
      "stateMutability": "pure",
      "type": "function"
    },
    {
      "constant": true,
      "inputs": [
        {
          "name": "x",
          "type": "uint256"
        }
      ],
      "name": "toBytes",
      "outputs": [
        {
          "name": "b",
          "type": "bytes"
        }
      ],
      "payable": false,
      "stateMutability": "pure",
      "type": "function"
    }
  ],
  "bytecode": "0x608060405234801561001057600080fd5b5061059d806100206000396000f3fe60806040526004361061004c576000357c0100000000000000000000000000000000000000000000000000000000900463ffffffff168063775a8f5e14610051578063c87b56dd14610105575b600080fd5b34801561005d57600080fd5b5061008a6004803603602081101561007457600080fd5b81019080803590602001909291905050506101b9565b6040518080602001828103825283818151815260200191508051906020019080838360005b838110156100ca5780820151818401526020810190506100af565b50505050905090810190601f1680156100f75780820380516001836020036101000a031916815260200191505b509250505060405180910390f35b34801561011157600080fd5b5061013e6004803603602081101561012857600080fd5b81019080803590602001909291905050506101fd565b6040518080602001828103825283818151815260200191508051906020019080838360005b8381101561017e578082015181840152602081019050610163565b50505050905090810190601f1680156101ab5780820380516001836020036101000a031916815260200191505b509250505060405180910390f35b606060206040519080825280601f01601f1916602001820160405280156101ef5781602001600182028038833980820191505090505b509050816020820152919050565b606080608060405190810160405280604a81526020017f68747470733a2f2f72696d626c652d646576636f6e2d64656d6f2e6e65746c6981526020017f66792e636f6d2f2e6e65746c6966792f66756e6374696f6e732f70617274696581526020017f733f746f6b656e49643d0000000000000000000000000000000000000000000081525090506060610290846102be565b90506102b561029e8261045c565b6102a78461045c565b61048a90919063ffffffff16565b92505050919050565b60606000821415610306576040805190810160405280600181526020017f30000000000000000000000000000000000000000000000000000000000000008152509050610457565b600082905060005b600082141515610334578080600101915050600a8281151561032c57fe5b04915061030e565b6060816040519080825280601f01601f1916602001820160405280156103695781602001600182028038833980820191505090505b50905060006001830390505b60008614151561044f576000600a8781151561038d57fe5b06603001905061039c816101b9565b601f8151811015156103aa57fe5b9060200101517f010000000000000000000000000000000000000000000000000000000000000090047f01000000000000000000000000000000000000000000000000000000000000000283838060019003945081518110151561040a57fe5b9060200101907effffffffffffffffffffffffffffffffffffffffffffffffffffffffffffff1916908160001a905350600a8781151561044657fe5b04965050610375565b819450505050505b919050565b610464610557565b600060208301905060408051908101604052808451815260200182815250915050919050565b60608082600001518460000151016040519080825280601f01601f1916602001820160405280156104ca5781602001600182028038833980820191505090505b50905060006020820190506104e8818660200151876000015161050c565b610501856000015182018560200151866000015161050c565b819250505092915050565b5b602081101515610532578151835260208301925060208201915060208103905061050d565b60006001826020036101000a0390508019835116818551168181178652505050505050565b60408051908101604052806000815260200160008152509056fea165627a7a723058204b126db357cbc274f82552c5e22de0735c44336533197219d173d7bc86a2ca270029",
  "source": "pragma solidity ^0.5.0;\n/**\n* PartiesMetadata contract is upgradeable and returns metadata about DevConParites token\n*/\n\nimport \"./helpers/strings.sol\";\n\ncontract PartiesMetadata {\n    using strings for *;\n\n    function tokenURI(uint _tokenId) public pure returns (string memory _infoUrl) {\n        string memory base = \"https://rimble-devcon-demo.netlify.com/.netlify/functions/parties?tokenId=\";\n        string memory id = uint2str(_tokenId);\n        return base.toSlice().concat(id.toSlice());\n    }\n\n    function uint2str(uint i) internal pure returns (string memory) {\n        if (i == 0) return \"0\";\n        uint j = i;\n        uint length;\n        while (j != 0) {\n            length++;\n            j /= 10;\n        }\n        bytes memory bstr = new bytes(length);\n        uint k = length - 1;\n        while (i != 0) {\n            uint _uint = 48 + i % 10;\n            bstr[k--] = toBytes(_uint)[31];\n            i /= 10;\n        }\n        return string(bstr);\n    }\n\n    function toBytes(uint256 x) public pure returns (bytes memory b) {\n        b = new bytes(32);\n        assembly { mstore(add(b, 32), x) }\n    }\n\n}",
  "sourcePath": "/Users/work/development/consensys/rimble-devcon-2019/contracts/PartiesMetadata.sol",
  "compiler": {
    "name": "solc",
    "version": "0.5.0+commit.1d4f565a.Emscripten.clang"
  },
  "schemaVersion": "3.0.1",
  "updatedAt": "2019-10-01T21:40:15.477Z",
  "devdoc": {
    "methods": {}
  },
  "userdoc": {
    "methods": {}
  }
}